:020000040000FA
:100000000C9479000C94A1000C94A1000C94A10014
:100010000C94A1000C94A1000C94A1000C94A100DC
:100020000C94A1000C94A1000C94A1000C943F0826
:100030000C94A1000C94A1000C94A1000C94A100BC
:100040000C947E060C94A1000C94EE060C94C80649
:100050000C94A1000C94A1000C94A1000C94A1009C
:100060000C9420070C94A100084AD73B3BCE016EAC
:1000700084BCBFFDC12F3D6C74319ABD56833DDAFF
:100080003D00C77F11BED9E4BB4C3E916BAAAABE0E
:10009000000000803F00000000002300260029002F
:1000A00000000000240027002A00000000002500B6
:1000B00028002B00040404040404040402020202C5
:1000C000020203030303030301020408102040801B
:1000D000010204081020010204081020000000089A
:1000E00000020100000304070000000000000000FF
:1000F000400911241FBECFEFD8E0DEBFCDBF11E015
:10010000A0E0B1E0EAE7FCE202C005900D92A03762
:10011000B107D9F723E0A0E7B1E001C01D92A73AEB
:10012000B207E1F710E0C9E7D0E004C02197FE0173
:100130000E944314C837D107C9F70E94F9090C94EB
:100140003B160C940000CF92DF92EF92FF92DC01FD
:10015000A03282E0B807D4F5A53BB10514F0A4EBBA
:10016000B0E04091A10328E830E0241B310947FDAD
:100170003395220F331F220F331F6901330FEE080F
:10018000FF084091A20328E532E0241B310947FD16
:100190003395220F331F220F331F032E000C440B05
:1001A000550B2C193D094E095F09B7FF02C0B0E09D
:1001B000A0E00E94E51124EB30E040E050E00E9416
:1001C000BB11C20ED31EE41EF51ED601E091A003A2
:1001D000EC3080F52091A10388E890E0821B910922
:1001E00027FD9395880F991F880F991FA817B907A6
:1001F00084F02091A20388E592E0821B910927FDFB
:100200009395880F991F880F991FA817B9070CF4A9
:10021000CD010297880F991F4FB7F8942E2F30E029
:10022000F901EE0FFF1FE20FF31FE252FD4F928321
:1002300081834FBFFF90EF90DF90CF90089590E0C3
:10024000FC01E452FF4F2491FC01E853FF4F34912D
:10025000FC01EC54FF4FE491EE23C9F0222339F066
:10026000233001F1A8F4213019F1223029F1F0E016
:10027000EE0FFF1FE655FF4FA591B4918FB7F8948D
:10028000EC91611126C030953E233C938FBF0895B9
:100290002730A9F02830C9F0243049F78091800038
:1002A0008F7D03C0809180008F7780938000DFCFA7
:1002B00084B58F7784BDDBCF84B58F7DFBCF8091F4
:1002C000B0008F778093B000D2CF8091B0008F7D47
:1002D000F9CF3E2BDACFCF93DF9390E0FC01E853C8
:1002E000FF4F24918C549F4FFC0184918823D1F0BF
:1002F00090E0880F991FFC01E056FF4FA591B49143
:10030000FC01E655FF4FC591D49161110EC09FB716
:10031000F8948C91E22FE0958E238C932881E22330
:10032000E8839FBFDF91CF9108958FB7F894EC9148
:10033000E22BEC938FBFF6CF1F93CF93DF93182F51
:10034000EB0161E00E946B01CF3FD10539F461E020
:10035000812FDF91CF911F910C941F01E12FF0E0CD
:10036000E452FF4FE491E33011F148F4E130B9F089
:10037000E23069F784B5806284BDC8BD14C0E7303F
:1003800001F1E83031F1E43011F7809180008062B2
:1003900080938000D0938B00C0938A0004C084B502
:1003A000806884BDC7BDDF91CF911F910895809172
:1003B0008000806880938000D0938900C09388007B
:1003C000F2CF8091B00080688093B000C093B300FA
:1003D000EACF8091B00080628093B000C093B400F7
:1003E000E2CF3FB7F8948091DD019091DE01A091BA
:1003F000DF01B091E00126B5A89B05C02F3F19F0A1
:100400000196A11DB11D3FBFBA2FA92F982F882794
:10041000BC01CD01620F711D811D911D42E0660F6F
:10042000771F881F991F4A95D1F708958F929F9241
:10043000AF92BF92CF92DF92EF92FF924B015C019D
:100440000E94F1016B017C010E94F1016C197D0990
:100450008E099F09683E734081059105A8F321E04C
:10046000821A9108A108B10888EEC80E83E0D81E50
:10047000E11CF11C81149104A104B10429F7FF903F
:10048000EF90DF90CF90BF90AF909F908F900895A6
:10049000089508950895AF92BF92CF92DF92EF92A0
:1004A000FF920F931F93CF93DF936C017B018B011E
:1004B000040F151FEB015E01AE18BF08C017D1076E
:1004C00059F06991D601ED91FC910190F081E02DF8
:1004D000C6010995892B79F7C501DF91CF911F914D
:1004E0000F91FF90EF90DF90CF90BF90AF90089565
:1004F000FC01538D448D252F30E0842F90E0821B2A
:10050000930B541710F0CF96089501970895FC01AE
:10051000918D828D981761F0A28DAE0FBF2FB11D06
:100520005D968C91928D9F5F9F73928F90E008955E
:100530008FEF9FEF08952FB7F8948091E10190918C
:10054000E201A091E301B091E4012FBF80933D024D
:1005500090933E02A0933F02B093400285E392E065
:100560000E94870297FF26C02FB7F8948091E1017F
:100570009091E201A091E301B091E4012FBF40917D
:100580003D0250913E0260913F0270914002841BF7
:10059000950BA60BB70B4091390250913A0260912E
:1005A0003B0270913C0284179507A607B707B0F28B
:1005B0008FEF9FEF0895FC01918D828D981731F098
:1005C000828DE80FF11D858D90E008958FEF9FEFEC
:1005D0000895FC01918D228D892F90E0805C9F4FC2
:1005E000821B91098F739927089585E392E00E94F9
:1005F000E90221E0892B09F420E0822F089580E0B0
:1006000090E0892B29F00E94F50281110C940000E2
:100610000895FC01A48DA80FB92FB11DA35ABF4F97
:100620002C91848D90E001968F739927848FA689F1
:10063000B7892C93A089B1898C91837080648C9345
:10064000938D848D981306C00288F389E02D8081F4
:100650008F7D80830895EF92FF920F931F93CF9326
:10066000DF93EC0181E0888F9B8D8C8D98131AC0ED
:10067000E889F989808185FF15C09FB7F894EE89D4
:10068000FF896083E889F989808183708064808331
:100690009FBF81E090E0DF91CF911F910F91FF907C
:1006A000EF900895F62E0B8D10E00F5F1F4F0F7324
:1006B0001127E02E8C8D8E110CC00FB607FCFACFDF
:1006C000E889F989808185FFF5CFCE010E94090371
:1006D000F1CFEB8DEC0FFD2FF11DE35AFF4FF082B0
:1006E0009FB7F8940B8FEA89FB8980818062CFCF16
:1006F000CF93DF93EC01888D8823B9F0AA89BB8959
:10070000E889F9898C9185FD03C0808186FD0DC043
:100710000FB607FCF7CF8C9185FFF2CF808185FF64
:10072000EDCFCE010E940903E9CFDF91CF9108956B
:1007300020919201260F3327331F21323105ECF42B
:1007400020910B02FC0190E080E0243069F082E00F
:100750000895A09192012191AC014E585E4FA40FD3
:10076000B52FB11D2C930196861798F380919201B5
:10077000680F6093920180E0089581E008951092DF
:100780000B0281E080930A021092E50161E082E1B0
:100790000E941F0161E083E10E941F01E9EBF0E08C
:1007A00080818E7F808380818D7F808388E48093A9
:1007B000B80085E48093BC000895CF93DF9391E067
:1007C000909371018823B9F0C091B800D091BA001C
:1007D0008091BC008A7B8093BC0060E082E10E9433
:1007E0001F0160E083E10E941F010E94BF03D093BC
:1007F000BA00C093B800DF91CF9108958F929F9275
:10080000AF92BF92CF92DF92EF92FF920F931F931E
:10081000CF93DF93D0913402D13208F0D7C0182F94
:10082000C09133020E94F1016B017C0180910B02A7
:1008300081116BC082E080930B0210930A028FEF4C
:100840008093090210920802D0930702A3E1B2E05C
:10085000E7EEF1E080E0D81391C01092E6018091BC
:10086000E601CC0FC82BC093E6018091E5018130F1
:1008700009F088C01092E5010E94F1016B017C0132
:100880008091E6018093BB0080910D0290910E0251
:10089000A0910F02B0911002892B8A2B8B2BA1F013
:1008A0000E94F10100910D0210910E0220910F02A1
:1008B000309110026C197D098E099F0906171707E0
:1008C0002807390708F442C08091BC0083FDD8CFC7
:1008D00085EC8093BC000E94F1016B017C0180914A
:1008E0000B02823009F450C0809109028F3F09F455
:1008F0006FC080910902803209F46CC080910902B6
:10090000803309F469C084E026C080910D02909183
:100910000E02A0910F02B0911002892B8A2B8B2B13
:1009200009F484CF0E94F10180900D0290900E0294
:10093000A0900F02B09010026C197D098E099F09DA
:1009400086169706A806B90608F070CF80910C02AB
:100950000E94DD0385E01092120210923402109280
:100960001102DF91CF911F910F91FF90EF90DF90D7
:10097000CF90BF90AF909F908F9008959D9191934D
:100980008F5F69CF85EEA5CF80910D0290910E0209
:10099000A0910F02B0911002892B8A2B8B2B09F4A6
:1009A0009ECF0E94F10100910D0210910E02209144
:1009B0000F02309110026C197D098E099F090617EC
:1009C00017072807390708F08ACFC0CF81E0C3CFC7
:1009D00080E0C1CF82E0BFCF83E0BDCF0895E0913A
:1009E000BA018091B901E81730F4F0E0E554FE4F08
:1009F000808190E008958FEF9FEF08959091BA0164
:100A00008091B9012FEF3FEF981748F4E92FF0E0FC
:100A1000E554FE4F208130E09F5F9093BA01C901F9
:100A200008958091B9019091BA01891B990B08959D
:100A3000CF92DF92EF92FF920F931F93CF93DF93AA
:100A40007C01CB018A0120911102222389F0EB0164
:100A50006B01C40ED51ECC15DD0569F06991D70177
:100A6000ED91FC910190F081E02DC7010995F3CF44
:100A7000642F0E949803C801DF91CF911F910F91BD
:100A8000FF90EF90DF90CF900895CF93DF931F9268
:100A9000CDB7DEB76983209111022223F9F02091AE
:100AA0003402203258F021E030E0FC01338322830D
:100AB00090E080E00F90DF91CF9108958091120235
:100AC000E82FF0E0ED5EFD4F998190838F5F80937A
:100AD00012028093340281E090E0ECCF61E0CE011D
:100AE00001960E949803F7CFCF93C62F90910603EB
:100AF00021E020931102909333021092120210927F
:100B00003402682F82ED92E00E9445056C2F82ED41
:100B100092E00E94450581E0CF910C94FE0390E0A5
:100B200080E0089561E08AE00E941F0161E08BE0AF
:100B30000E941F0161E086E00E941F0161E089E0E0
:100B40000C941F01FC0101900020E9F73197AF01DF
:100B5000481B590BBC0185E392E00C944B028F9229
:100B60009F92AF92BF920F931F93CF93DF93CDB716
:100B7000DEB7A1970FB6F894DEBF0FBECDBF19A2A6
:100B8000423008F44AE08E010F5D1F4F842E912CF5
:100B9000B12CA12CA50194010E942412E62FB901C9
:100BA000CA01EA30F4F4E05DD801EE938D01232B05
:100BB000242B252B79F790E080E0109719F0CD01D8
:100BC0000E94A205A1960FB6F894DEBF0FBECDBF5E
:100BD000DF91CF911F910F91BF90AF909F908F9019
:100BE0000895E95CE1CFCF92DF92EF92FF92CF932D
:100BF000DF936B017C016DE285E392E00E942B03A1
:100C0000EC0166277727CB016C197D098E099F09B6
:100C10004AE00E94AF058C0F9D1FDF91CF91FF909E
:100C2000EF90DF90CF900895BC01990F880B990B3E
:100C300097FD0C94F3054AE00C94AF050F931F93B6
:100C4000CF93DF93EC0188819981009759F02A8135
:100C50003B812617370730F081E0DF91CF911F915C
:100C60000F9108958B016F5F7F4F0E946E15009763
:100C700059F0998388831B830A832C813D81232B20
:100C800059F7FC011082E8CF80E0E7CF85ED809333
:100C9000BC0080910D0290910E02A0910F02B091C4
:100CA00010020796A11DB11D23E0B695A795979553
:100CB00087952A95D1F72091BC0024FD03C010929E
:100CC0000B02089540910D0250910E0260910F02A7
:100CD00070911002452B462B472B69F30097A10515
:100CE000B10541F02AE22A95F1F700C00197A10968
:100CF000B109E1CF80910C020C94DD031F920F9299
:100D00000FB60F9211242F933F938F939F93AF931E
:100D1000BF938091E1019091E201A091E301B09134
:100D2000E4013091DC0123E0230F2D3758F50196C3
:100D3000A11DB11D2093DC018093E1019093E2019C
:100D4000A093E301B093E4018091DD019091DE0175
:100D5000A091DF01B091E0010196A11DB11D80932A
:100D6000DD019093DE01A093DF01B093E001BF911C
:100D7000AF919F918F913F912F910F900FBE0F9048
:100D80001F90189526E8230F0296A11DB11DD2CF02
:100D90001F920F920FB60F9211242F933F934F93F0
:100DA0005F936F937F938F939F93AF93BF93EF93D3
:100DB000FF9385E392E00E940903FF91EF91BF91B9
:100DC000AF919F918F917F916F915F914F913F91E3
:100DD0002F910F900FBE0F901F9018951F920F929A
:100DE0000FB60F9211242F938F939F93EF93FF933E
:100DF000E0914502F09146028081E0914B02F09132
:100E00004C0282FD1BC0908180914E028F5F8F73D8
:100E100020914F02821741F0E0914E02F0E0EB5C2E
:100E2000FD4F958F80934E02FF91EF919F918F918F
:100E30002F910F900FBE0F901F9018958081F4CFC7
:100E40001F920F920FB60F9211242F933F934F933F
:100E50005F936F937F938F939F93AF93BF93EF9322
:100E6000FF938091B900887F803609F44AC0F0F57D
:100E7000883209F4A7C018F5803109F49BC0B8F492
:100E8000882309F4F9C0883009F494C0FF91EF91E8
:100E9000BF91AF919F918F917F916F915F914F9192
:100EA0003F912F910F900FBE0F901F901895883192
:100EB00009F488C0803251F78093090214C080344D
:100EC00009F49DC040F48033B9F38833F9F6809378
:100ED000090285ECB0C0803509F485C0883509F475
:100EE00096C0883499F60E944606D0CF883909F416
:100EF0008CC038F5883729F050F4883611F08037E7
:100F000029F683E080930B021092B40157C0883811
:100F100009F47BC0803919F0803809F0B7CF80918F
:100F2000B401803208F071C0E091B40181E08E0F0D
:100F30008093B4018091BB00F0E0EC56FE4F8083BB
:100F40003DC0803B39F0E0F4803A09F479C0883A3A
:100F500009F09CCF84E080930B02109293011092D1
:100F60009201E091B701F091B80109958091920149
:100F700081110FC081E0809392011092720109C02B
:100F8000803C09F4A6CF883C09F4A3CF883B09F044
:100F90007DCFE091930181E08E0F80939301F0E08B
:100FA000EE58FE4F80818093BB0090919301809119
:100FB000920129C08091E6018093BB0085EC80936B
:100FC000BC0064CF9091080280910702981758F5F1
:100FD000E091080281E08E0F80930802F0E0E95171
:100FE000FE4F8081E9CFE091080281E08E0F80936F
:100FF00008028091BB00F0E0E951FE4F80839091A0
:101000000802809107029817C8F285E8D8CFE091CE
:10101000080281E08E0F809308028091BB00F0E00F
:10102000E951FE4F808380910A0281115CCF81E0FB
:101030008093E50184EA8093BC0010920B0226CFD6
:1010400085EC8093BC0010920B028091B401803239
:1010500030F4E091B401F0E0EC56FE4F1082609164
:10106000B40170E0E091B501F091B60184E991E03E
:1010700009951092B4010ACF1092090234CF1F9241
:101080000F920FB60F9211242F933F934F935F93BC
:101090006F937F938F939F93AF93BF93CF93DF9380
:1010A000EF93FF9380917001C0910203D0E087FF1E
:1010B00024C01092850010928400809170018F5F8F
:1010C0008093700180917001082E000C990B8C1791
:1010D0009D0724F4809170018C30C4F180918400CC
:1010E00090918500049680349C4908F47AC08091E0
:1010F000840090918500049676C080917001082E3E
:10110000000C990B8C179D07C4F6E09170018E2F8F
:10111000EE0F990BFC01EE0FFF1FE80FF91FE252D3
:10112000FD4F808186FFC9CFE09170018E2FEE0FB9
:10113000990BFC01EE0FFF1FE80FF91FE252FD4F64
:10114000808160E08F730E941F01B7CF20918400DF
:1011500030918500E09170018E2FEE0F990BFC010C
:10116000EE0FFF1FE80FF91FE252FD4F81819281C0
:10117000820F931F9093890080938800E091700103
:101180008E2FEE0F990BFC01EE0FFF1FE80FF91FDA
:10119000E252FD4F808186FF11C0E09170018E2FD9
:1011A000EE0F990BFC01EE0FFF1FE80FF91FE25243
:1011B000FD4F808161E08F730E941F01FF91EF91CD
:1011C000DF91CF91BF91AF919F918F917F916F915F
:1011D0005F914F913F912F910F900FBE0F901F90F5
:1011E000189580E49CE990938900809388008FEFA4
:1011F00080937001E3CFCF92DF92EF92FF920F9333
:101200001F93E82FF92F05C0015011092109310959
:1012100061F1908196239417B9F305C0015011092B
:101220002109310911F1908196239413F7CFC12C34
:10123000D12CE12CF12C0AC08FEFC81AD80AE80A89
:10124000F80A0C151D052E053F0579F080818623CF
:10125000841791F36C2D7D2D8E2D9F2D1F910F9155
:10126000FF90EF90DF90CF90089560E070E080E015
:1012700090E01F910F91FF90EF90DF90CF90089535
:10128000109238021092370288EE93E0A0E0B0E0AE
:101290008093390290933A02A0933B02B0933C02B0
:1012A0002CE331E0309336022093350225EC30E018
:1012B000309342022093410224EC30E03093440208
:1012C0002093430220EC30E0309346022093450205
:1012D00021EC30E0309348022093470222EC30E0CA
:1012E00030934A022093490226EC30E030934C02BE
:1012F00020934B0210924E0210924F021092500215
:10130000109251021092D5021092D4028093D6020C
:101310009093D702A093D802B093D9028EE491E0C3
:101320009093D3028093D202809102038C3008F014
:101330005CC091E0980F909302038093A00390E02B
:10134000FC01EE0FFF1FE80FF91FE252FD4F88EB83
:101350009BE0928381831092030385E080930403D2
:10136000109205038DE080930603109208031092FB
:10137000070310920A031092090310920C031092B3
:101380000B0310924A031092490310924B031092E0
:101390004C0310924D0310924E0310924F03109283
:1013A0005003109251031092520310925303109263
:1013B0005403109255031092560310925803109242
:1013C000570310925A031092590310925C03109223
:1013D0005B0310925D0380E3E8E0F1E0A0E7B3E097
:1013E00001900D928A95E1F708958FEF8093A00305
:1013F000B2CFCF93DF93CDB7DEB7A1970FB6F894F6
:10140000DEBF0FBECDBF789484B5826084BD84B545
:10141000816084BD85B5826085BD85B5816085BDEF
:1014200080916E00816080936E00109281008091A7
:10143000810082608093810080918100816080932F
:101440008100809180008160809380008091B10054
:1014500084608093B1008091B00081608093B0007F
:1014600080917A00846080937A0080917A00826013
:1014700080937A0080917A00816080937A008091D5
:101480007A00806880937A001092C100E091450252
:10149000F091460282E08083E0914102F0914202A5
:1014A0001082E0914302F09144028FEC808310920D
:1014B0004D02E0914902F0914A0286E08083E0917A
:1014C0004702F0914802808180618083E091470269
:1014D000F0914802808188608083E0914702F0911A
:1014E0004802808180688083E0914702F091480241
:1014F00080818F7D808381E090E0A0E0B0E08093E8
:10150000390290933A02A0933B02B0933C0261E00F
:1015100086E00E946B0161E089E00E946B0161E05E
:101520008AE00E946B0161E08BE00E946B0161E048
:1015300088E00E946B0161E087E00E946B0161E03E
:101540008DE00E946B0160E08FE00E946B0161E022
:1015500080E10E946B018091A0038C3008F051C0A3
:1015600061E085E00E946B018091A003282F30E0AC
:10157000F901EE0FFF1FE20FF31FE252FD4F9081C2
:10158000907C956090831092A1031092A2032CE0AE
:10159000622F0E940F14829FB001112430E020E0DE
:1015A000AB01420F531FFA01EE0FFF1FE40FF51FAF
:1015B000E252FD4F908196FD16C02F5F3F4F2C30B9
:1015C000310571F781110FC01092800082E0809385
:1015D00081001092850010928400B19A80916F0072
:1015E000826080936F00E091A0038E2F90E0FC0159
:1015F000EE0FFF1FE80FF91FE252FD4F808180645C
:1016000080831092BA011092B901109212021092C6
:1016100034020E94BF0389E492E09093B801809362
:10162000B7018AE492E09093B6018093B5010E94DD
:10163000BF0361E08BE00E9474056DE189E00E94C8
:10164000740581E080935D0310925F0310925E0346
:101650008EEA96E090936103809360031092630397
:101660001092620384E498E090936503809364038E
:101670008CEA97EF90936703809366031092690357
:10168000109268039E012B5F3F4F388B2F8718867F
:101690001F821A8619861C861B8670E060E0CE01C8
:1016A00007960E941E062F813885811151C0211591
:1016B000310519F0C9010E94E51418861F821C86A5
:1016C0001B861A86198685E392E00E94E902892B1F
:1016D00009F498C01A8219821C821B821E821D8204
:1016E00070E060E0CE0101960E941E0629813A81D9
:1016F000811136C02115310519F0C9010E94E51488
:101700001A8219821E821D821C821B820E949B02E9
:1017100097FD2EC08A33910559F18D871E860D8164
:101720001E810F5F1F4FB801CE0101960E941E0659
:10173000882361F329813A818D819E81BE01635F97
:101740007F4F820F931F0E9434161E830D83DECFBE
:101750001C861B8668E671E0C9010E943416B3CF6F
:101760001E821D8268E671E0C9010E943416CECF48
:101770008F819885009709F47EC069817A8161150F
:10178000710509F476C049855A852D813E8142173D
:10179000530708F46EC00E9434168D819E819C8789
:1017A0008B871E821D8289819A81009711F00E9489
:1017B000E514EF81F8851081112321F1812F012E8D
:1017C000000C990B209100013091010182179307C1
:1017D000C9F090930101809300018CE591E00E9493
:1017E000A205612F110F770B880B990B97FF54C03F
:1017F0000E94F3058DE691E00E94A20586E691E045
:101800000E94A20580910001909101018737910506
:1018100009F046C060E08AE00E941F0161E08BE0B1
:101820000E941F0160E086E00E941F0161E089E0E4
:101830000E941F016FEF70E088E00E949C016FEF33
:1018400070E087E00E949C011092DB018F819885F7
:10185000009711F00E94E514A0E0B0E0AB2B09F472
:1018600016CF0E94F502882309F411CF0E940000D0
:101870000ECF0E94E51489819A8198878F838B818E
:101880009C819A8789878D819E819C878B871A820C
:1018900019821C821B8285CF4AE00E94AF05AACF25
:1018A00081369105C1F460E08AE00E941F0161E089
:1018B0008BE00E941F0161E086E00E941F0160E052
:1018C00089E00E941F0166E970E088E00E949C01A7
:1018D00066E970E0B6CF83379105C1F461E08AE034
:1018E0000E941F0160E08BE00E941F0161E086E022
:1018F0000E941F0160E089E00E941F0164EB70E01C
:1019000088E00E949C0164EB70E09BCF84369105D7
:1019100071F461E08AE00E941F0160E08BE00E94A8
:101920001F0160E086E00E941F0161E0C9CF81379E
:10193000910509F0BAC08DB69EB60E9492054DB7CA
:101940005EB7405951090FB6F8945EBF0FBE4DBF48
:101950008DB79EB701965C016C01F12CE12CB701AB
:101960000F2C000C880B990B0E94C21020E030E075
:1019700040EA50E40E94FD1020E030E0A9010E94FE
:1019800056120E94A613CB010E94A30060E080E1E2
:101990000E941F0183E090E00197F1F761E080E190
:1019A0000E941F0183E290E00197F1F760E080E17F
:1019B0000E941F01E7EDF0E06491E3ECF0E0849118
:1019C000E82FF0E0EE0FFF1FEA56FF4F859194914C
:1019D00000E412E42FE030E0462F0E94FB0861157E
:1019E00071058105910529F06F5F7F4F8F4F9F4FE4
:1019F0009F700E94C0102AE939E949EB50E40E9427
:101A0000341320E030E040E251E40E943413698353
:101A10007A838B839C83FE013196D60181918D93CD
:101A20002F8538892E173F07C9F764E670E080E0FC
:101A300090E00E9416023FEFE31AF30A44E0C40E5E
:101A4000D11C54E2E516F10409F089CF89E691E052
:101A50000E94A20584E290E00E9414068DE691E0C7
:101A60000E94A20540E950E0B50185E392E00E94A2
:101A70004B028DE691E00E94A20586E691E00E946D
:101A8000A20586E590E00E94A30085E392E00E9413
:101A9000780388EE93E090930101809300010FB6E4
:101AA000F8949EBE0FBE8DBED1CE8336910509F04F
:101AB0005DC30E9492058091060391E0909311020C
:101AC00080933302109212021092340260E082ED91
:101AD00092E00E94450581E00E94FE038111E3C26D
:101AE000109106030E94F1016B017C0180910B02B1
:101AF000811166C0A1E0A0930B02A0930A028FEFB0
:101B0000809309021092080285E080930702A09357
:101B1000E6018091E601110F182B1093E6018091E8
:101B2000E501813009F049C21092E5010E94F101FE
:101B30006B017C018091E6018093BB0080910D02D6
:101B400090910E02A0910F02B0911002892B8A2B66
:101B50008B2BA1F00E94F10100910D0210910E0259
:101B600020910F02309110026C197D098E099F0996
:101B7000061717072807390708F443C08091BC00EF
:101B800083FDD8CF85EC8093BC000E94F1016B01EE
:101B90007C0180910B02813009F411C2809108020E
:101BA000863008F02EC280910802A7EEB1E0EBEB80
:101BB000F1E090E0981751F12D9121939F5FFACFBA
:101BC00080910D0290910E02A0910F02B09110022F
:101BD000892B8A2B8B2B09F489CF0E94F1018090ED
:101BE0000D0290900E02A0900F02B09010026C199E
:101BF0007D098E099F0986169706A806B90608F082
:101C000075CF80910C020E94DD0380E01092BA0132
:101C10008093B90182ED92E00E94FE048C0182ED76
:101C200092E00E94FE048D8F1C8EEC8DFD8D0E2B9C
:101C30001F2B109308030093070382ED92E00E948C
:101C4000FE048C0182ED92E00E94FE048F8F1E8EB6
:101C50002E8D3F8D022B132B10930A030093090343
:101C600082ED92E00E94FE048C0182ED92E00E94DF
:101C7000FE0489A318A248A159A1042B152B109387
:101C80000C0300930B0350915D035B8F552309F404
:101C9000E8C0A0905E03B0905F0360906003709016
:101CA000610380916203909163039C8B8B8BA09165
:101CB0006403B0916503BA8BA98BE0916603F09140
:101CC0006703FE8BED8B2091680330916903388F99
:101CD0002F8B6301CA18DB08D7FE03C03FEFC31A7E
:101CE000D30AD594C794E988FA884B895C89E41AA9
:101CF000F50AF7FE03C05FEFE51AF50AF594E794DD
:101D00006F89788D8D899E89681B790B77FF02C05A
:101D10006F5F7F4FDB01B595A795BA8FA98FC6017D
:101D20008E0D9F1D8A0F9B1F63E070E00E941B14A5
:101D3000072E000C880B990B0E94C2101B012C016E
:101D4000A60CB71CB7FE03C0BFEFAB1ABB0AB59415
:101D5000A79460910703709108036A197B09072E05
:101D6000000C880B990B0E94C2104B015C01B6015C
:101D7000DD0C880B990B0E94C2109B01AC01C201C3
:101D8000B1010E9434139B01AC01C501B4010E9452
:101D9000FD100E94A61370936B0360936A038B88F7
:101DA0009C88E989FA898E0E9F1E97FE03C0FFEF7B
:101DB0008F1A9F0A959487946091090370910A0382
:101DC00068197909072E000C880B990B0E94C21024
:101DD0004B015C01B701FF0C880B990B0E94C210EC
:101DE0009B01AC01C201B1010E9434139B01AC0103
:101DF000C501B4010E94FD100E94A61370936D03EB
:101E000060936C038D899E892F89388D820F931F73
:101E100097FD019695958795B801681B790B072E5C
:101E2000000C880B990B0E94C2106B017C01498D3C
:101E30005A8DBA01550F880B990B0E94C2109B0155
:101E4000AC01C201B1010E9434139B01AC01C70176
:101E5000B6010E94FD100E94A61370936F03609359
:101E60006E0380910303882309F41DC1809004034D
:101E7000C82CD12C8091490390914A038C159D0563
:101E800024F010924A0310924903809149039091E3
:101E90004A039E8B8D8B009105035BE4252E53E056
:101EA000352E63E0462E63E0562EE6E0DC01EA9F25
:101EB000C001EB9F900D11249C01235F3C4F3C8B94
:101EC0002B8B712C612C912CB12CA12CA601415093
:101ED0005109588F4F8B52E0C51AD1080D2C000CB8
:101EE000EE08FF08F1014081518162817381411543
:101EF00051056105710581F0AB89BC898D919C917B
:101F0000092E000CAA0BBB0B481B590B6A0B7B0B51
:101F10004083518362837383BB8DBB2309F473C0F9
:101F2000D201A959BF4F6D917C91AB89BC896D934A
:101F30007D93BC8BAB8BB4E02B0E311C072E000CB9
:101F4000880B990B2081318142815381620F731F6D
:101F5000841F951FF101349760837183828393837B
:101F6000A5019401002309F485C0D20130E020E0EE
:101F700010E0412F50E0FA01EE0FFF1FE40FF51FB4
:101F8000E60DF71DEE0FFF1FE35FFC4F408151810F
:101F90005A8B498BEF89F88D2E173F07CCF51A968F
:101FA0004D915C911B97E989FA89E417F5070CF4C8
:101FB000122F2F5F3F4F1696DCCF85EEE4CD809138
:101FC0000D0290910E02A0910F02B0911002892B88
:101FD0008A2B8B2B09F4DDCD0E94F10100910D02BB
:101FE00010910E0220910F02309110026C197D09A0
:101FF0008E099F09061717072807390708F0C9CD6A
:1020000000CE86E0D2CDD20114966D917C918DCF19
:10201000D20130E020E010E0412F50E0FA01EE0F55
:10202000FF1FE40FF51FE60DF71DEE0FFF1FE35F27
:10203000FC4F40815181EF89F88D2E173F0764F4E2
:102040001A96ED91FC911B97E417F5070CF4122FEB
:102050002F5F3F4F1696E0CF29893A89420F531FD1
:102060009A01550F440B550B621B730B840B950B98
:10207000A70196010E94BB11F201EC5AFF4F318378
:1020800020833FEF631A730A42E0440E511C53E071
:102090006516710409F026CF8D899E89019690936B
:1020A0004A03809349038CE691E00E94A2051091B7
:1020B0000303609157037091580311110CC0809174
:1020C0005D0360916A0370916B03811104C060919C
:1020D000070370910803072E000C880B990B0E94D0
:1020E000C2106B017C016091590370915A03111168
:1020F0000CC080915D0360916C0370916D03811140
:1021000004C06091090370910A03072E000C880B2C
:10211000990B0E94C210A70196010E94D51220E0DF
:1021200030E044E353E40E94FD102BED3FE049E42E
:1021300050E40E9434130E94A6139B0177FF02C053
:1021400028593E4FC9010E9414068DE691E00E9475
:10215000A20564EF71E080E090E00E94160288EE34
:1021600093E0909301018093000170CB8091DB019B
:1021700081116CCB0E94920591E09093DB0166CBBC
:10218000E89409C097FB3EF4909580957095619511
:102190007F4F8F4F9F4F9923A9F0F92F96E9BB27C7
:1021A0009395F695879577956795B795F111F8CF43
:1021B000FAF4BB0F11F460FF1BC06F5F7F4F8F4FAE
:1021C0009F4F16C0882311F096E911C0772321F0A4
:1021D0009EE8872F762F05C0662371F096E8862F3C
:1021E00070E060E02AF09A95660F771F881FDAF793
:1021F000880F9695879597F908950E9410110C9471
:1022000081110E94731138F00E947A1120F09523F9
:1022100011F00C946A110C94701111240C94B511E6
:102220000E94921170F3959FC1F3950F50E0551FD6
:10223000629FF001729FBB27F00DB11D639FAA271B
:10224000F00DB11DAA1F649F6627B00DA11D661F6A
:10225000829F2227B00DA11D621F739FB00DA11D8B
:10226000621F839FA00D611D221F749F3327A00D45
:10227000611D231F849F600D211D822F762F6A2FE1
:1022800011249F5750409AF0F1F088234AF0EE0F46
:10229000FF1FBB1F661F771F881F91505040A9F773
:1022A0009E3F510580F00C946A110C94B5115F3F6C
:1022B000E4F3983ED4F3869577956795B795F795AF
:1022C000E7959F5FC1F7FE2B880F911D9695879527
:1022D00097F9089597F99F6780E870E060E00895A6
:1022E0009FEF80EC089500240A941616170618062E
:1022F0000906089500240A9412161306140605060A
:102300000895092E0394000C11F4882352F0BB0F9A
:1023100040F4BF2B11F460FF04C06F5F7F4F8F4FFD
:102320009F4F089557FD9058440F551F59F05F3F38
:1023300071F04795880F97FB991F61F09F3F79F0E7
:1023400087950895121613061406551FF2CF469569
:10235000F1DF08C0161617061806991FF1CF8695EB
:102360007105610508940895E894BB2766277727CF
:10237000CB0197F90895052E97FB1EF400940E9457
:10238000D21157FD07D00E94241207FC03D04EF44F
:102390000C94D21150954095309521953F4F4F4F59
:1023A0005F4F089590958095709561957F4F8F4F01
:1023B0009F4F08950E944612A59F900DB49F900DC7
:1023C000A49F800D911D11240895B7FF0C94DA117C
:1023D0000E94DA11821B930B08952F923F924F9225
:1023E0005F926F927F928F929F92AF92BF92CF92A5
:1023F000DF92EF92FF920F931F93CF93DF93CDB7AE
:10240000DEB7CA1BDB0B0FB6F894DEBF0FBECDBF25
:1024100009942A88398848885F846E847D848C84F6
:102420009B84AA84B984C884DF80EE80FD800C81FF
:102430001B81AA81B981CE0FD11D0FB6F894DEBFE2
:102440000FBECDBFED010895A1E21A2EAA1BBB1B42
:10245000FD010DC0AA1FBB1FEE1FFF1FA217B30770
:10246000E407F50720F0A21BB30BE40BF50B661F86
:10247000771F881F991F1A9469F76095709580954A
:1024800090959B01AC01BD01CF010895A29FB001C1
:10249000B39FC001A39F700D811D1124911DB29F98
:1024A000700D811D1124911D08955058BB27AA2736
:1024B0000E946D120C9481110E94731138F00E94D9
:1024C0007A1120F039F49F3F19F426F40C9470111E
:1024D0000EF4E095E7FB0C946A11E92F0E9492112B
:1024E00058F3BA17620773078407950720F079F449
:1024F000A6F50C94B4110EF4E0950B2EBA2FA02D76
:102500000B01B90190010C01CA01A0011124FF27A0
:10251000591B99F0593F50F4503E68F11A16F0409B
:10252000A22F232F342F4427585FF3CF469537959A
:102530002795A795F0405395C9F77EF41F16BA0B5F
:10254000620B730B840BBAF09150A1F0FF0FBB1F0D
:10255000661F771F881FC2F70EC0BA0F621F731F56
:10256000841F48F4879577956795B795F7959E3FB3
:1025700008F0B0CF9395880F08F09927EE0F979544
:10258000879508950E94731160F080E891E009F446
:102590009EEF0E947A1128F040E851E071F45EEF5E
:1025A0000CC00C9470110C94B411E92FE0780E94C7
:1025B000921140F3092E052AB1F326173707480771
:1025C000590738F00E2E07F8E02569F0E025E064A1
:1025D0000AC0EF6307F8009407FADB01B9019D0117
:1025E000DC01CA01AD01EF930E944B130E948111DF
:1025F0000E9405135F91552339F02BED3FE049E42C
:1026000050FD49EC0C9456120895DF93DD27B92F45
:10261000BF7740E85FE31616170648075B0718F414
:10262000D92F0E9403149F938F937F936F930E94DF
:102630000B14E8E6F0E00E94DC130E9481112F9158
:102640003F914F915F910E941011DD2351F09058FE
:10265000A2EA2AED3FE049EC5FE3D0785D270E94D3
:102660006D12DF910C9481110E9448130C9481111A
:102670000E947A1158F00E94731140F029F45F3FD4
:1026800029F00C946A1151110C94B5110C9470112D
:102690000E94921168F39923B1F3552391F3951B8E
:1026A000550BBB27AA2762177307840738F09F5F73
:1026B0005F4F220F331F441FAA1FA9F335D00E2EE0
:1026C0003AF0E0E832D091505040E695001CCAF74D
:1026D0002BD0FE2F29D0660F771F881FBB1F261710
:1026E00037074807AB07B0E809F0BB0B802DBF01E7
:1026F000FF2793585F4F3AF09E3F510578F00C94B6
:102700006A110C94B5115F3FE4F3983ED4F38695BB
:1027100077956795B795F7959F5FC9F7880F911DD6
:102720009695879597F90895E1E0660F771F881FC2
:10273000BB1F621773078407BA0720F0621B730B75
:10274000840BBA0BEE1F88F7E09508950E94AD1335
:102750006894B1110C94B51108950E949A1188F0F3
:102760009F5798F0B92F9927B751B0F0E1F0660F55
:10277000771F881F991F1AF0BA95C9F714C0B13096
:1027800091F00E94B411B1E008950C94B411672F38
:10279000782F8827B85F39F0B93FCCF386957795C5
:1027A0006795B395D9F73EF49095809570956195AE
:1027B0007F4F8F4F9F4F0895DF93CF931F930F93BA
:1027C000FF92EF92DF927B018C01689406C0DA2EB3
:1027D000EF010E941011FE01E894A5912591359119
:1027E00045915591A6F3EF010E946D12FE019701EC
:1027F000A801DA9469F7DF90EF90FF900F911F9195
:10280000CF91DF9108959B01AC0160E070E080E81A
:102810009FE30C9434139B01AC010C94FD10991BA5
:1028200079E004C0991F961708F0961B881F7A95C7
:10283000C9F78095089597FB072E16F4009407D0EA
:1028400077FD09D00E942F1407FC05D03EF4909527
:1028500081959F4F0895709561957F4F0895AA1BAC
:10286000BB1B51E107C0AA1FBB1FA617B70710F07B
:10287000A61BB70B881F991F5A95A9F780959095AD
:10288000BC01CD010895EE0FFF1F0590F491E02DDE
:1028900009940F931F93CF93DF938230910510F427
:1028A00082E090E0E091A503F091A60330E020E003
:1028B000B0E0A0E0309799F42115310509F44AC041
:1028C000281B390B24303105D8F58A819B8161158D
:1028D000710589F1FB0193838283FE0111C0408160
:1028E00051810281138148175907E0F048175907B1
:1028F00099F4109761F012960C93129713961C930B
:102900003296CF01DF91CF911F910F9108950093DF
:10291000A5031093A603F4CF2115310551F04217FA
:10292000530738F0A901DB019A01BD01DF01F8016D
:10293000C1CFEF01F9CF9093A6038093A503CDCF2C
:10294000FE01E20FF31F81939193225031093983E5
:102950002883D7CF2091A3033091A403232B41F4E4
:1029600020910401309105013093A4032093A30327
:1029700020910201309103012115310541F42DB759
:102980003EB74091060150910701241B350BE091A1
:10299000A303F091A403E217F307A0F42E1B3F0B4F
:1029A0002817390778F0AC014E5F5F4F24173507C1
:1029B00048F04E0F5F1F5093A4034093A3038193ED
:1029C00091939FCFF0E0E0E09CCFCF93DF9300970F
:1029D000E9F0FC01329713821282A091A503B09115
:1029E000A603ED0130E020E01097A1F420813181B1
:1029F000820F931F2091A3033091A4032817390756
:102A000009F061C0F093A403E093A303DF91CF9199
:102A10000895EA01CE17DF07E8F54A815B819E0140
:102A200041155105B1F7E901FB83EA8349915991B9
:102A3000C40FD51FEC17FD0761F4808191810296C8
:102A4000840F951FE90199838883828193819B83F9
:102A50008A83F0E0E0E012968D919C9113970097A5
:102A6000B9F52D913C911197CD010296820F931FDC
:102A70002091A3033091A4032817390739F6309722
:102A800051F51092A6031092A503B093A403A0934E
:102A9000A303BCCFD383C28340815181840F951F90
:102AA000C817D90761F44E5F5F4F88819981480F3D
:102AB000591F518340838A819B819383828321158F
:102AC000310509F0B0CFF093A603E093A5039ECFA4
:102AD000FD01DC01C0CF13821282D7CFB0E0A0E0AD
:102AE000E4E7F5E10C94EF118C01009751F4CB0170
:102AF0000E9449148C01C801CDB7DEB7E0E10C9407
:102B00000B12FC01E60FF71F9C0122503109E2175E
:102B1000F30708F49DC0D901CD91DC911197C61738
:102B2000D70798F0C530D10530F3CE01049786174A
:102B3000970708F3C61BD70B2297C193D1936D93C8
:102B40007C93CF010E94E514D6CF5B01AC1ABD0A7D
:102B50004C018C0E9D1EA091A503B091A603512C93
:102B6000412CF12CE12C109731F58091A303909129
:102B7000A4038815990509F05CC04616570608F0AD
:102B800058C08091020190910301009741F48DB7E4
:102B90009EB74091060150910701841B950BE817E1
:102BA000F90708F055C0F093A403E093A303F901DB
:102BB00071836083A0CF8D919C91119712966C9038
:102BC000129713967C901397A815B90559F56C01C7
:102BD00042E0C40ED11CCA14DB0420F1AC014A1936
:102BE0005B09DA011296159780F062827382518335
:102BF0004083D9016D937C93E114F10471F0D70106
:102C00001396FC93EE93129776CF22968C0F9D1F0E
:102C1000F90191838083F301EFCFF093A603E09352
:102C2000A50369CF4816590608F42C017D01D3018C
:102C30009ACFCB010E9449147C01009749F0AE0164
:102C4000B8010E942B16C8010E94E514870153CFDA
:102C500010E000E050CFFB01DC0102C001900D92BA
:102C600041505040D8F70895FB01DC0101900D92CE
:102C70000020E1F70895F894FFCFE8030000A703D0
:102C8000800020204E4E4E45204E45454E4520208A
:102C900045455345205345535345202053535357DF
:102CA000205357575357202057574E57204E574EB3
:102CB0004E57000000002B034B0278027803E90214
:102CC0008702DB0200000000450518058F05EE04B1
:102CD0001105FE04EF04563A5665726966792000C4
:0A2CE0000D0A00443A00433A0000D8
:107E0000112484B714BE81FFF0D085E080938100F7
:107E100082E08093C00088E18093C10086E0809377
:107E2000C20080E18093C4008EE0C9D0259A86E02C
:107E300020E33CEF91E0309385002093840096BBD3
:107E4000B09BFECF1D9AA8958150A9F7CC24DD24C4
:107E500088248394B5E0AB2EA1E19A2EF3E0BF2EE7
:107E6000A2D0813461F49FD0082FAFD0023811F036
:107E7000013811F484E001C083E08DD089C08234E0
:107E800011F484E103C0853419F485E0A6D080C0E4
:107E9000853579F488D0E82EFF2485D0082F10E0AE
:107EA000102F00270E291F29000F111F8ED06801E7
:107EB0006FC0863521F484E090D080E0DECF843638
:107EC00009F040C070D06FD0082F6DD080E0C81688
:107ED00080E7D80618F4F601B7BEE895C0E0D1E017
:107EE00062D089930C17E1F7F0E0CF16F0E7DF06D8
:107EF00018F0F601B7BEE89568D007B600FCFDCFD4
:107F0000A601A0E0B1E02C9130E011968C91119780
:107F100090E0982F8827822B932B1296FA010C0160
:107F200087BEE89511244E5F5F4FF1E0A038BF0790
:107F300051F7F601A7BEE89507B600FCFDCF97BE46
:107F4000E89526C08437B1F42ED02DD0F82E2BD052
:107F50003CD0F601EF2C8F010F5F1F4F84911BD097
:107F6000EA94F801C1F70894C11CD11CFA94CF0C13
:107F7000D11C0EC0853739F428D08EE10CD085E9AC
:107F80000AD08FE07ACF813511F488E018D01DD067
:107F900080E101D065CF982F8091C00085FFFCCF94
:107FA0009093C60008958091C00087FFFCCF809118
:107FB000C00084FD01C0A8958091C6000895E0E648
:107FC000F0E098E1908380830895EDDF803219F02E
:107FD00088E0F5DFFFCF84E1DECF1F93182FE3DFCA
:107FE0001150E9F7F2DF1F91089580E0E8DFEE27F6
:047FF000FF270994CA
:027FFE00040479
:00000001FF
